{
  "contractName": "EllipticCurveInterface",
  "abi": [
    {
      "constant": true,
      "inputs": [],
      "name": "gx",
      "outputs": [
        {
          "name": "",
          "type": "uint256"
        }
      ],
      "payable": false,
      "stateMutability": "view",
      "type": "function"
    },
    {
      "constant": true,
      "inputs": [
        {
          "name": "x",
          "type": "uint256"
        },
        {
          "name": "pp",
          "type": "uint256"
        }
      ],
      "name": "invMod",
      "outputs": [
        {
          "name": "q",
          "type": "uint256"
        }
      ],
      "payable": false,
      "stateMutability": "pure",
      "type": "function"
    },
    {
      "constant": true,
      "inputs": [],
      "name": "gy",
      "outputs": [
        {
          "name": "",
          "type": "uint256"
        }
      ],
      "payable": false,
      "stateMutability": "view",
      "type": "function"
    },
    {
      "constant": true,
      "inputs": [],
      "name": "nn",
      "outputs": [
        {
          "name": "",
          "type": "uint256"
        }
      ],
      "payable": false,
      "stateMutability": "view",
      "type": "function"
    },
    {
      "constant": true,
      "inputs": [],
      "name": "pp",
      "outputs": [
        {
          "name": "",
          "type": "uint256"
        }
      ],
      "payable": false,
      "stateMutability": "view",
      "type": "function"
    },
    {
      "constant": true,
      "inputs": [
        {
          "name": "_x1",
          "type": "uint256"
        },
        {
          "name": "_y1",
          "type": "uint256"
        },
        {
          "name": "_x2",
          "type": "uint256"
        },
        {
          "name": "_y2",
          "type": "uint256"
        }
      ],
      "name": "eAdd",
      "outputs": [
        {
          "name": "_x3",
          "type": "uint256"
        },
        {
          "name": "_y3",
          "type": "uint256"
        }
      ],
      "payable": false,
      "stateMutability": "view",
      "type": "function"
    },
    {
      "constant": true,
      "inputs": [
        {
          "name": "_x1",
          "type": "uint256"
        },
        {
          "name": "_y1",
          "type": "uint256"
        },
        {
          "name": "_x2",
          "type": "uint256"
        },
        {
          "name": "_y2",
          "type": "uint256"
        }
      ],
      "name": "eSub",
      "outputs": [
        {
          "name": "_x3",
          "type": "uint256"
        },
        {
          "name": "_y3",
          "type": "uint256"
        }
      ],
      "payable": false,
      "stateMutability": "view",
      "type": "function"
    },
    {
      "constant": true,
      "inputs": [
        {
          "name": "_z",
          "type": "uint256"
        },
        {
          "name": "_x1",
          "type": "uint256"
        },
        {
          "name": "_y1",
          "type": "uint256"
        }
      ],
      "name": "eMul",
      "outputs": [
        {
          "name": "_x2",
          "type": "uint256"
        },
        {
          "name": "_y2",
          "type": "uint256"
        }
      ],
      "payable": false,
      "stateMutability": "view",
      "type": "function"
    }
  ],
  "bytecode": "0x60806040527ffffffffffffffffffffffffffffffffffffffffffffffffffffffffefffffc2f6000557ffffffffffffffffffffffffffffffffebaaedce6af48a03bbfd25e8cd03641416001557f79be667ef9dcbbac55a06295ce870b07029bfcdb2dce28d959f2815b16f817986002557f483ada7726a3c4655da4fbfc0e1108a8fd17b448a68554199c47d08ffb10d4b86003553480156100a057600080fd5b50610e5a806100b06000396000f3fe608060405234801561001057600080fd5b50600436106100a5576000357c01000000000000000000000000000000000000000000000000000000009004806366da27af1161007857806366da27af1461019957806372a4c30f146101f65780638e833f0d1461021457806391327ec61461027b576100a5565b806306c91ce3146100aa5780631b54f824146100c85780632d58c9a21461011457806330f3234914610132575b600080fd5b6100b2610299565b6040518082815260200191505060405180910390f35b6100fe600480360360408110156100de57600080fd5b81019080803590602001909291908035906020019092919050505061029f565b6040518082815260200191505060405180910390f35b61011c610394565b6040518082815260200191505060405180910390f35b61017c6004803603608081101561014857600080fd5b810190808035906020019092919080359060200190929190803590602001909291908035906020019092919050505061039a565b604051808381526020018281526020019250505060405180910390f35b6101d9600480360360608110156101af57600080fd5b810190808035906020019092919080359060200190929190803590602001909291905050506103be565b604051808381526020018281526020019250505060405180910390f35b6101fe6103e0565b6040518082815260200191505060405180910390f35b61025e6004803603608081101561022a57600080fd5b81019080803590602001909291908035906020019092919080359060200190929190803590602001909291905050506103e6565b604051808381526020018281526020019250505060405180910390f35b61028361040a565b6040518082815260200191505060405180910390f35b60025481565b6000808314806102ae57508183145b806102b95750600082145b1561032c576040517f08c379a000000000000000000000000000000000000000000000000000000000815260040180806020018281038252600e8152602001807f496e76616c6964206e756d62657200000000000000000000000000000000000081525060200191505060405180910390fd5b600090506000600190506000839050600085905060005b6000821461038a5781838161035457fe5b04905083868061036057fe5b878061036857fe5b8684098803870880955081965050508182820284038093508194505050610343565b5050505092915050565b60035481565b6000806103ad8686868660008054610410565b809250819350505094509492505050565b6000806103d085858560008054610448565b8092508193505050935093915050565b60015481565b6000806103f98686868660008054610486565b809250819350505094509492505050565b60005481565b6000806000806104218888876104ff565b915091506104338a8a84848a8a610486565b80945081955050505050965096945050505050565b600080600080600061045f8a8a8a60018b8b61051f565b925092509250610471838383896106ab565b80955081965050505050509550959350505050565b600080600080905060008090506000809050888b14156104bf576104ae8b8b60018a8a6106fa565b8093508194508295505050506104dd565b6104d08b8b60018c8c60018c6108b8565b8093508194508295505050505b6104e9838383896106ab565b8095508196505050505050965096945050505050565b60008084838585038161050e57fe5b068092508193505050935093915050565b600080600080899050610530610de1565b898160006003811061053e57fe5b602002018181525050888160016003811061055557fe5b602002018181525050878160026003811061056c57fe5b60200201818152505060009450600093506001925060008b14156105a5576000806001829250819150809050945094509450505061069f565b5b6000821461069c5760006001831614610608576105fb858585846000600381106105cc57fe5b6020020151856001600381106105de57fe5b6020020151866002600381106105f057fe5b60200201518c6108b8565b8095508196508297505050505b6002828161061257fe5b0491506106558160006003811061062557fe5b60200201518260016003811061063757fe5b60200201518360026003811061064957fe5b60200201518a8a6106fa565b8360006003811061066257fe5b602002018460016003811061067357fe5b602002018560026003811061068457fe5b602002018381525083815250838152505050506105a6565b50505b96509650969350505050565b60008060006106ba858561029f565b9050600084806106c657fe5b828309905084806106d357fe5b818909935084806106e057fe5b85806106e857fe5b82840988099250505094509492505050565b600080600080861415610715578787879250925092506108ad565b61071d610de1565b848061072557fe5b898a098160006003811061073557fe5b602002018181525050848061074657fe5b8889098160016003811061075657fe5b602002018181525050848061076757fe5b8788098160026003811061077757fe5b6020020181815250506000858061078a57fe5b868061079257fe5b8360016003811061079f57fe5b60200201518c096004099050600086806107b557fe5b87806107bd57fe5b88806107c557fe5b856002600381106107d257fe5b6020020151866002600381106107e457fe5b6020020151098a0988806107f457fe5b8560006003811061080157fe5b60200201516003090890506000878061081657fe5b888061081e57fe5b8485088903898061082b57fe5b848509089050809650878061083c57fe5b888061084457fe5b898061084c57fe5b8660016003811061085957fe5b60200201518760016003811061086b57fe5b6020020151096008098903898061087e57fe5b8a8061088657fe5b8a8c0387088509089550878061089857fe5b88806108a057fe5b8b8d096002099450505050505b955095509592505050565b6000806000808a1480156108cc5750600089145b156108df57868686925092509250610dd4565b6000871480156108ef5750600086145b1561090257898989925092509250610dd4565b61090a610e03565b848061091257fe5b898a098160006004811061092257fe5b602002018181525050848061093357fe5b8160006004811061094057fe5b60200201518a098160016004811061095457fe5b602002018181525050848061096557fe5b8687098160026004811061097557fe5b602002018181525050848061098657fe5b8160026004811061099357fe5b60200201518709816003600481106109a757fe5b602002018181525050604051806080016040528086806109c357fe5b836002600481106109d057fe5b60200201518e09815260200186806109e457fe5b836003600481106109f157fe5b60200201518d0981526020018680610a0557fe5b83600060048110610a1257fe5b60200201518b0981526020018680610a2657fe5b83600160048110610a3357fe5b60200201518a09815250905080600260048110610a4c57fe5b602002015181600060048110610a5e57fe5b60200201511415610b6e5780600360048110610a7657fe5b602002015181600160048110610a8857fe5b602002015114610b00576040517f08c379a000000000000000000000000000000000000000000000000000000000815260040180806020018281038252600a8152602001807f57726f6e6720646174610000000000000000000000000000000000000000000081525060200191505060405180910390fd5b6040517f08c379a00000000000000000000000000000000000000000000000000000000081526004018080602001828103825260128152602001807f55736520646f75626c6520696e7374656164000000000000000000000000000081525060200191505060405180910390fd5b610b76610e03565b8580610b7e57fe5b82600060048110610b8b57fe5b6020020151870383600260048110610b9f57fe5b60200201510881600060048110610bb257fe5b6020020181815250508580610bc357fe5b82600160048110610bd057fe5b6020020151870383600360048110610be457fe5b60200201510881600160048110610bf757fe5b6020020181815250508580610c0857fe5b81600060048110610c1557fe5b602002015182600060048110610c2757fe5b60200201510981600260048110610c3a57fe5b6020020181815250508580610c4b57fe5b81600060048110610c5857fe5b602002015182600260048110610c6a57fe5b60200201510981600360048110610c7d57fe5b6020020181815250508580610c8e57fe5b81600360048110610c9b57fe5b602002015187038780610caa57fe5b83600160048110610cb757fe5b602002015184600160048110610cc957fe5b6020020151090894508580610cda57fe5b8680610ce257fe5b8780610cea57fe5b83600260048110610cf757fe5b602002015185600060048110610d0957fe5b6020020151096002098703860894508580610d2057fe5b8680610d2857fe5b8688038880610d3357fe5b84600260048110610d4057fe5b602002015186600060048110610d5257fe5b6020020151090882600160048110610d6657fe5b60200201510993508580610d7657fe5b8680610d7e57fe5b82600360048110610d8b57fe5b602002015184600160048110610d9d57fe5b6020020151098703850893508580610db157fe5b8680610db957fe5b888c0982600060048110610dc957fe5b602002015109925050505b9750975097945050505050565b6040518060600160405280600390602082028038833980820191505090505090565b604051806080016040528060049060208202803883398082019150509050509056fea265627a7a72305820c0c186a0c7d334c2f88f73bb1e3e145cb9f9ca7f6d09cb3a09d333e47329e8fd64736f6c634300050a0032",
  "source": "pragma solidity 0.5.10;\n\nimport \"./EllipticCurve.sol\";\n\ncontract EllipticCurveInterface is EllipticCurve{\n    uint256 public pp = uint256(0xFFFFFFFFFFFFFFFFFFFFFFFFFFFFFFFFFFFFFFFFFFFFFFFFFFFFFFFEFFFFFC2F);\n    uint256 public nn = uint256(0xfffffffffffffffffffffffffffffffebaaedce6af48a03bbfd25e8cd0364141);\n    uint256 public gx = uint256(0x79BE667EF9DCBBAC55A06295CE870B07029BFCDB2DCE28D959F2815B16F81798);\n    uint256 public gy = uint256(0x483ADA7726A3C4655DA4FBFC0E1108A8FD17B448A68554199C47D08FFB10D4B8);\n\n    function eAdd( uint256 _x1 , uint256 _y1 , uint256 _x2 , uint256 _y2 )\n        public\n        view\n        returns ( uint256 _x3 , uint256 _y3 )\n    {\n        (_x3,_y3) = ecAdd(_x1,_y1,_x2,_y2,0,pp);\n    }\n\n    function eSub( uint256 _x1 , uint256 _y1 , uint256 _x2 , uint256 _y2 )\n        public\n        view\n        returns ( uint256 _x3 , uint256 _y3 )\n    {\n        (_x3,_y3) = ecSub(_x1,_y1,_x2,_y2,0,pp);\n    }\n\n    function eMul( uint256 _z , uint256 _x1 , uint256 _y1 )\n        public\n        view\n        returns ( uint256 _x2 , uint256 _y2 )\n    {\n        (_x2,_y2) = ecMul(_z,_x1,_y1,0,pp);\n    }\n\n}",
  "sourcePath": "/Users/harshpatel/codebase/git/solGrined/solGrined/contracts/ZKP/EllipticCurveInerface.sol",
  "compiler": {
    "name": "solc",
    "version": "0.5.10+commit.5a6ea5b1.Emscripten.clang"
  },
  "schemaVersion": "3.0.18",
  "updatedAt": "2019-11-10T12:38:39.517Z",
  "devdoc": {
    "methods": {
      "invMod(uint256,uint256)": {
        "details": "Modular euclidean inverse of a number (mod p)",
        "params": {
          "pp": "The modulus",
          "x": "The number"
        },
        "return": "q such that x*q = 1 (mod pp)"
      }
    }
  },
  "userdoc": {
    "methods": {}
  }
}