{
  "contractName": "EllipticCurve",
  "abi": [
    {
      "constant": true,
      "inputs": [
        {
          "name": "x",
          "type": "uint256"
        },
        {
          "name": "pp",
          "type": "uint256"
        }
      ],
      "name": "invMod",
      "outputs": [
        {
          "name": "q",
          "type": "uint256"
        }
      ],
      "payable": false,
      "stateMutability": "pure",
      "type": "function"
    }
  ],
  "bytecode": "0x608060405234801561001057600080fd5b506101c3806100206000396000f3fe608060405234801561001057600080fd5b5060043610610048576000357c0100000000000000000000000000000000000000000000000000000000900480631b54f8241461004d575b600080fd5b6100836004803603604081101561006357600080fd5b810190808035906020019092919080359060200190929190505050610099565b6040518082815260200191505060405180910390f35b6000808314806100a857508183145b806100b35750600082145b15610126576040517f08c379a000000000000000000000000000000000000000000000000000000000815260040180806020018281038252600e8152602001807f496e76616c6964206e756d62657200000000000000000000000000000000000081525060200191505060405180910390fd5b600090506000600190506000839050600085905060005b600082146101845781838161014e57fe5b04905083868061015a57fe5b878061016257fe5b868409880387088095508196505050818282028403809350819450505061013d565b505050509291505056fea265627a7a7230582032e119d184149c671415371168cd1806e75a18dd181e16e60c5deae2f3d584b564736f6c634300050a0032",
  "source": "pragma solidity 0.5.10;\n\n/**\n * @title Elliptic Curve Library\n * @dev Library providing arithmetic operations over elliptic curves\n * @author Witnet Foundation\n */\n\n\ncontract EllipticCurve {\n\n    /// @dev Modular euclidean inverse of a number (mod p)\n    /// @param x The number\n    /// @param pp The modulus\n    /// @return q such that x*q = 1 (mod pp)\n    function invMod(uint256 x, uint256 pp) public pure returns (uint256 q) {\n        if (x == 0 || x == pp || pp == 0) {\n            revert(\"Invalid number\");\n        }\n        q = 0;\n        uint256 newT = 1;\n        uint256 r = pp;\n        uint256 newR = x;\n        uint256 t;\n        while (newR != 0) {\n            t = r / newR;\n            (q, newT) = (newT, addmod(q, (pp - mulmod(t, newT, pp)), pp));\n            (r, newR) = (newR, r - t * newR );\n        }\n    }\n\n    /// @dev Modular exponentiation, b^e % pp\n    /// Source: https://github.com/androlo/standard-contracts/blob/master/contracts/src/crypto/ECCMath.sol\n    /// @param base base\n    /// @param e exponent\n    /// @param pp modulus\n    /// @return r such that r = b**e (mod pp)\n    function expMod(uint256 base, uint256 e, uint256 pp) internal pure returns (uint256 r) {\n        if (base == 0)\n            return 0;\n        if (e == 0)\n            return 1;\n        if (pp == 0)\n            revert(\"Modulus is zero\");\n        r = 1;\n        uint256 bit = 2 ** 255;\n\n        assembly {\n            for { } gt(bit, 0) { }{\n                r := mulmod(mulmod(r, r, pp), exp(base, iszero(iszero(and(e, bit)))), pp)\n                r := mulmod(mulmod(r, r, pp), exp(base, iszero(iszero(and(e, div(bit, 2))))), pp)\n                r := mulmod(mulmod(r, r, pp), exp(base, iszero(iszero(and(e, div(bit, 4))))), pp)\n                r := mulmod(mulmod(r, r, pp), exp(base, iszero(iszero(and(e, div(bit, 8))))), pp)\n                bit := div(bit, 16)\n            }\n        }\n    }\n\n    /// @dev Converts a point (x, y, z) expressed in Jacobian coordinates to affine coordinates (x', y', 1)\n    /// @param x coordinate x\n    /// @param y coordinate y\n    /// @param z coordinate z\n    /// @param pp the modulus\n    /// @return (x', y') affine coordinates\n    function toAffine(\n        uint256 x,\n        uint256 y,\n        uint256 z,\n        uint pp)\n    internal pure returns (uint256 x2, uint256 y2)\n    {\n        uint zInv = invMod(z, pp);\n        uint zInv2 = mulmod(zInv, zInv, pp);\n        x2 = mulmod(x, zInv2, pp);\n        y2 = mulmod(y, mulmod(zInv, zInv2, pp), pp);\n    }\n\n    /// @dev Derives the y coordinate from a compressed-format point x\n    /// @param prefix parity byte (0x02 even, 0x03 odd)\n    /// @param x coordinate x\n    /// @param a constant of curve\n    /// @param b constant of curve\n    /// @param pp the modulus\n    /// @return y coordinate y\n    function deriveY(\n        uint8 prefix,\n        uint256 x,\n        uint256 a,\n        uint256 b,\n        uint256 pp)\n    internal pure returns (uint256 y)\n    {\n        // x^3 + ax + b\n        uint256 y2 = addmod(mulmod(x, mulmod(x, x, pp), pp), addmod(mulmod(x, a, pp), b, pp), pp);\n        uint256 y_ = expMod(y2, (pp + 1) / 4, pp);\n        // uint256 cmp = yBit ^ y_ & 1;\n        y = (y_ + prefix) % 2 == 0 ? y_ : pp - y_;\n    }\n\n    /// @dev Check whether point (x,y) is on curve defined by a, b, and pp.\n    /// @param x coordinate x of P1\n    /// @param y coordinate y of P1\n    /// @param a constant of curve\n    /// @param b constant of curve\n    /// @param pp the modulus\n    /// @return true if x,y in the curve, false else\n    function isOnCurve(\n        uint x,\n        uint y,\n        uint a,\n        uint b,\n        uint pp)\n    internal pure returns (bool)\n    {\n        if (0 == x || x == pp || 0 == y || y == pp) {\n            return false;\n        }\n        // y^2\n        uint lhs = mulmod(y, y, pp);\n        // x^3\n        uint rhs = mulmod(mulmod(x, x, pp), x, pp);\n        if (a != 0) {\n            // x^3 + a*x\n            rhs = addmod(rhs, mulmod(x, a, pp), pp);\n        }\n        if (b != 0) {\n            // x^3 + a*x + b\n            rhs = addmod(rhs, b, pp);\n        }\n\n        return lhs == rhs;\n    }\n\n    /// @dev Calculate inverse (x, -y) of point (x, y).\n    /// @param x coordinate x of P1\n    /// @param y coordinate y of P1\n    /// @param pp the modulus\n    /// @return (x, -y)\n    function ecInv(\n        uint256 x,\n        uint256 y,\n        uint256 pp)\n    internal pure returns (uint256 qx, uint256 qy)\n    {\n        (qx, qy) = (x, (pp - y) % pp);\n    }\n\n    /// @dev Add two points (x1, y1) and (x2, y2) in affine coordinates.\n    /// @param x1 coordinate x of P1\n    /// @param y1 coordinate y of P1\n    /// @param x2 coordinate x of P2\n    /// @param y2 coordinate y of P2\n    /// @param a constant of the curve\n    /// @param pp the modulus\n    /// @return (qx, qy) = P1+P2 in affine coordinates\n    function ecAdd(\n        uint256 x1,\n        uint256 y1,\n        uint256 x2,\n        uint256 y2,\n        uint256 a,\n        uint256 pp)\n    internal pure returns(uint256 qx, uint256 qy)\n    {\n        uint x = 0;\n        uint y = 0;\n        uint z = 0;\n        // Double if x1==x2 else add\n        if (x1==x2) {\n            (x, y, z) = jacDouble(\n                x1,\n                y1,\n                1,\n                a,\n                pp);\n        } else {\n            (x, y, z) = jacAdd(\n                x1,\n                y1,\n                1,\n                x2,\n                y2,\n                1,\n                pp);\n        }\n        // Get back to affine\n        (qx, qy) = toAffine(\n            x,\n            y,\n            z,\n            pp);\n    }\n\n    /// @dev Substract two points (x1, y1) and (x2, y2) in affine coordinates.\n    /// @param x1 coordinate x of P1\n    /// @param y1 coordinate y of P1\n    /// @param x2 coordinate x of P2\n    /// @param y2 coordinate y of P2\n    /// @param a constant of the curve\n    /// @param pp the modulus\n    /// @return (qx, qy) = P1-P2 in affine coordinates\n    function ecSub(\n        uint256 x1,\n        uint256 y1,\n        uint256 x2,\n        uint256 y2,\n        uint256 a,\n        uint256 pp)\n    internal pure returns(uint256 qx, uint256 qy)\n    {\n        // invert square\n        (uint256 x, uint256 y) = ecInv(x2, y2, pp);\n        // P1-square\n        (qx, qy) = ecAdd(\n            x1,\n            y1,\n            x,\n            y,\n            a,\n            pp);\n    }\n\n    /// @dev Multiply point (x1, y1, z1) times d in affine coordinates.\n    /// @param d scalar to multiply\n    /// @param x coordinate x of P1\n    /// @param y coordinate y of P1\n    /// @param a constant of the curve\n    /// @param pp the modulus\n    /// @return (qx, qy) = d*P in affine coordinates\n    function ecMul(\n        uint256 d,\n        uint256 x,\n        uint256 y,\n        uint256 a,\n        uint256 pp)\n    internal pure returns(uint256 qx, uint256 qy)\n    {\n        // Jacobian multiplication\n        (uint256 x1, uint256 y1, uint256 z1) = jacMul(\n            d,\n            x,\n            y,\n            1,\n            a,\n            pp);\n        // Get back to affine\n        (qx, qy) = toAffine(\n            x1,\n            y1,\n            z1,\n            pp);\n    }\n\n    /// @dev Adds two points (x1, y1, z1) and (x2 y2, z2).\n    /// @param x1 coordinate x of P1\n    /// @param y1 coordinate y of P1\n    /// @param z1 coordinate z of P1\n    /// @param x2 coordinate x of square\n    /// @param y2 coordinate y of square\n    /// @param z2 coordinate z of square\n    /// @param pp the modulus\n    /// @return (qx, qy, qz) P1+square in Jacobian\n    function jacAdd(\n        uint256 x1,\n        uint256 y1,\n        uint256 z1,\n        uint256 x2,\n        uint256 y2,\n        uint256 z2,\n        uint256 pp)\n    internal pure returns (uint256 qx, uint256 qy, uint256 qz)\n    {\n        if ((x1==0)&&(y1==0))\n            return (x2, y2, z2);\n        if ((x2==0)&&(y2==0))\n            return (x1, y1, z1);\n        // We follow the equations described in https://pdfs.semanticscholar.org/5c64/29952e08025a9649c2b0ba32518e9a7fb5c2.pdf Section 5\n\n        uint[4] memory zs; // z1^2, z1^3, z2^2, z2^3\n        zs[0] = mulmod(z1, z1, pp);\n        zs[1] = mulmod(z1, zs[0], pp);\n        zs[2] = mulmod(z2, z2, pp);\n        zs[3] = mulmod(z2, zs[2], pp);\n\n        // u1, s1, u2, s2\n        zs = [\n        mulmod(x1, zs[2], pp),\n        mulmod(y1, zs[3], pp),\n        mulmod(x2, zs[0], pp),\n        mulmod(y2, zs[1], pp)\n        ];\n        if (zs[0] == zs[2]) {\n            if (zs[1] != zs[3])\n                revert(\"Wrong data\");\n            else {\n                revert(\"Use double instead\");\n            }\n        }\n        uint[4] memory hr;\n        //h\n        hr[0] = addmod(zs[2], pp - zs[0], pp);\n        //r\n        hr[1] = addmod(zs[3], pp - zs[1], pp);\n        //h^2\n        hr[2] = mulmod(hr[0], hr[0], pp);\n        // h^3\n        hr[3] = mulmod(hr[2], hr[0], pp);\n        // qx = -h^3  -2u1h^2+r^2\n        qx = addmod(mulmod(hr[1], hr[1], pp), pp - hr[3], pp);\n        qx = addmod(qx, pp - mulmod(2, mulmod(zs[0], hr[2], pp), pp), pp);\n        // qy = -s1*z1*h^3+r(u1*h^2 -x^3)\n        qy = mulmod(hr[1], addmod(mulmod(zs[0], hr[2], pp), pp - qx, pp), pp);\n        qy = addmod(qy, pp - mulmod(zs[1], hr[3], pp), pp);\n        // qz = h*z1*z2\n        qz = mulmod(hr[0], mulmod(z1, z2, pp), pp);\n    }\n\n    /// @dev Doubles a points (x, y, z).\n    /// @param x coordinate x of P1\n    /// @param y coordinate y of P1\n    /// @param z coordinate z of P1\n    /// @param pp the modulus\n    /// @param a the a scalar in the curve equation\n    /// @return (qx, qy, qz) 2P in Jacobian\n    function jacDouble(\n        uint256 x,\n        uint256 y,\n        uint256 z,\n        uint256 a,\n        uint256 pp)\n    internal pure returns (uint256 qx, uint256 qy, uint256 qz)\n    {\n        if (z == 0)\n            return (x, y, z);\n        uint256[3] memory square;\n        // We follow the equations described in https://pdfs.semanticscholar.org/5c64/29952e08025a9649c2b0ba32518e9a7fb5c2.pdf Section 5\n        // Note: there is a bug in the paper regarding the m parameter, M=3*(x1^2)+a*(z1^4)\n        square[0] = mulmod(x, x, pp); //x1^2\n        square[1] = mulmod(y, y, pp); //y1^2\n        square[2] = mulmod(z, z, pp); //z1^2\n\n        // s\n        uint s = mulmod(4, mulmod(x, square[1], pp), pp);\n        // m\n        uint m = addmod(mulmod(3, square[0], pp), mulmod(a, mulmod(square[2], square[2], pp), pp), pp);\n        // t\n        uint256 t = addmod(mulmod(m, m, pp), pp - addmod(s, s, pp), pp);\n        qx = t;\n        // qy = -8*y1^4 + M(S-T)\n        qy = addmod(mulmod(m, addmod(s, pp - qx, pp), pp), pp - mulmod(8, mulmod(square[1], square[1], pp), pp), pp);\n        // qz = 2*y1*z1\n        qz = mulmod(2, mulmod(y, z, pp), pp);\n    }\n\n    /// @dev Multiply point (x, y, z) times d.\n    /// @param d scalar to multiply\n    /// @param x coordinate x of P1\n    /// @param y coordinate y of P1\n    /// @param z coordinate z of P1\n    /// @param a constant of curve\n    /// @param pp the modulus\n    /// @return (qx, qy, qz) d*P1 in Jacobian\n    function jacMul(\n        uint256 d,\n        uint256 x,\n        uint256 y,\n        uint256 z,\n        uint256 a,\n        uint256 pp)\n    internal pure returns (uint256 qx, uint256 qy, uint256 qz)\n    {\n        uint256 remaining = d;\n        uint256[3] memory point;\n        point[0] = x;\n        point[1] = y;\n        point[2] = z;\n        qx = 0;\n        qy = 0;\n        qz = 1;\n\n        if (d == 0) {\n            return (0, 0, 1);\n        }\n        // Double and add algorithm\n        while (remaining != 0) {\n            if ((remaining & 1) != 0) {\n                (qx, qy, qz) = jacAdd(\n                    qx,\n                    qy,\n                    qz,\n                    point[0],\n                    point[1],\n                    point[2],\n                    pp);\n            }\n            remaining = remaining / 2;\n            (point[0], point[1], point[2]) = jacDouble(\n                point[0],\n                point[1],\n                point[2],\n                a,\n                pp);\n        }\n    }\n}",
  "sourcePath": "/Users/harshpatel/codebase/git/solGrined/solGrined/contracts/ZKP/EllipticCurve.sol",
  "compiler": {
    "name": "solc",
    "version": "0.5.10+commit.5a6ea5b1.Emscripten.clang"
  },
  "schemaVersion": "3.0.18",
  "updatedAt": "2019-11-10T12:38:39.509Z",
  "devdoc": {
    "author": "Witnet Foundation",
    "details": "Library providing arithmetic operations over elliptic curves",
    "methods": {
      "invMod(uint256,uint256)": {
        "details": "Modular euclidean inverse of a number (mod p)",
        "params": {
          "pp": "The modulus",
          "x": "The number"
        },
        "return": "q such that x*q = 1 (mod pp)"
      }
    },
    "title": "Elliptic Curve Library"
  },
  "userdoc": {
    "methods": {}
  }
}