{
  "contractName": "PedersenCommitment",
  "abi": [
    {
      "constant": true,
      "inputs": [],
      "name": "gx",
      "outputs": [
        {
          "name": "",
          "type": "uint256"
        }
      ],
      "payable": false,
      "stateMutability": "view",
      "type": "function"
    },
    {
      "constant": true,
      "inputs": [
        {
          "name": "x",
          "type": "uint256"
        },
        {
          "name": "pp",
          "type": "uint256"
        }
      ],
      "name": "invMod",
      "outputs": [
        {
          "name": "q",
          "type": "uint256"
        }
      ],
      "payable": false,
      "stateMutability": "pure",
      "type": "function"
    },
    {
      "constant": true,
      "inputs": [],
      "name": "gy",
      "outputs": [
        {
          "name": "",
          "type": "uint256"
        }
      ],
      "payable": false,
      "stateMutability": "view",
      "type": "function"
    },
    {
      "constant": true,
      "inputs": [
        {
          "name": "_x1",
          "type": "uint256"
        },
        {
          "name": "_y1",
          "type": "uint256"
        },
        {
          "name": "_x2",
          "type": "uint256"
        },
        {
          "name": "_y2",
          "type": "uint256"
        }
      ],
      "name": "eSub",
      "outputs": [
        {
          "name": "_x3",
          "type": "uint256"
        },
        {
          "name": "_y3",
          "type": "uint256"
        }
      ],
      "payable": false,
      "stateMutability": "view",
      "type": "function"
    },
    {
      "constant": true,
      "inputs": [
        {
          "name": "_z",
          "type": "uint256"
        },
        {
          "name": "_x1",
          "type": "uint256"
        },
        {
          "name": "_y1",
          "type": "uint256"
        }
      ],
      "name": "eMul",
      "outputs": [
        {
          "name": "_x2",
          "type": "uint256"
        },
        {
          "name": "_y2",
          "type": "uint256"
        }
      ],
      "payable": false,
      "stateMutability": "view",
      "type": "function"
    },
    {
      "constant": true,
      "inputs": [],
      "name": "H",
      "outputs": [
        {
          "name": "",
          "type": "uint256"
        }
      ],
      "payable": false,
      "stateMutability": "view",
      "type": "function"
    },
    {
      "constant": true,
      "inputs": [],
      "name": "nn",
      "outputs": [
        {
          "name": "",
          "type": "uint256"
        }
      ],
      "payable": false,
      "stateMutability": "view",
      "type": "function"
    },
    {
      "constant": true,
      "inputs": [
        {
          "name": "_x1",
          "type": "uint256"
        },
        {
          "name": "_y1",
          "type": "uint256"
        },
        {
          "name": "_x2",
          "type": "uint256"
        },
        {
          "name": "_y2",
          "type": "uint256"
        }
      ],
      "name": "eAdd",
      "outputs": [
        {
          "name": "_x3",
          "type": "uint256"
        },
        {
          "name": "_y3",
          "type": "uint256"
        }
      ],
      "payable": false,
      "stateMutability": "view",
      "type": "function"
    },
    {
      "constant": true,
      "inputs": [],
      "name": "pp",
      "outputs": [
        {
          "name": "",
          "type": "uint256"
        }
      ],
      "payable": false,
      "stateMutability": "view",
      "type": "function"
    },
    {
      "constant": true,
      "inputs": [
        {
          "name": "_r",
          "type": "uint256"
        },
        {
          "name": "_v",
          "type": "uint256"
        }
      ],
      "name": "commit",
      "outputs": [
        {
          "name": "_x3",
          "type": "uint256"
        },
        {
          "name": "_y3",
          "type": "uint256"
        }
      ],
      "payable": false,
      "stateMutability": "view",
      "type": "function"
    },
    {
      "constant": true,
      "inputs": [
        {
          "name": "_r",
          "type": "uint256"
        },
        {
          "name": "_v",
          "type": "uint256"
        },
        {
          "name": "_x1",
          "type": "uint256"
        },
        {
          "name": "_y1",
          "type": "uint256"
        }
      ],
      "name": "verify",
      "outputs": [
        {
          "name": "result",
          "type": "bool"
        }
      ],
      "payable": false,
      "stateMutability": "view",
      "type": "function"
    },
    {
      "constant": true,
      "inputs": [
        {
          "name": "_r1",
          "type": "uint256"
        },
        {
          "name": "_x1",
          "type": "uint256"
        },
        {
          "name": "_y1",
          "type": "uint256"
        },
        {
          "name": "_r2",
          "type": "uint256"
        },
        {
          "name": "_x2",
          "type": "uint256"
        },
        {
          "name": "_y2",
          "type": "uint256"
        }
      ],
      "name": "addCommitment",
      "outputs": [
        {
          "name": "_r3",
          "type": "uint256"
        },
        {
          "name": "_x3",
          "type": "uint256"
        },
        {
          "name": "_y3",
          "type": "uint256"
        }
      ],
      "payable": false,
      "stateMutability": "view",
      "type": "function"
    },
    {
      "constant": true,
      "inputs": [
        {
          "name": "_r1",
          "type": "uint256"
        },
        {
          "name": "_x1",
          "type": "uint256"
        },
        {
          "name": "_y1",
          "type": "uint256"
        },
        {
          "name": "_r2",
          "type": "uint256"
        },
        {
          "name": "_x2",
          "type": "uint256"
        },
        {
          "name": "_y2",
          "type": "uint256"
        }
      ],
      "name": "subCommitment",
      "outputs": [
        {
          "name": "_r3",
          "type": "uint256"
        },
        {
          "name": "_x3",
          "type": "uint256"
        },
        {
          "name": "_y3",
          "type": "uint256"
        }
      ],
      "payable": false,
      "stateMutability": "view",
      "type": "function"
    }
  ],
  "bytecode": "0x60806040527ffffffffffffffffffffffffffffffffffffffffffffffffffffffffefffffc2f6000557ffffffffffffffffffffffffffffffffebaaedce6af48a03bbfd25e8cd03641416001557f79be667ef9dcbbac55a06295ce870b07029bfcdb2dce28d959f2815b16f817986002557f483ada7726a3c4655da4fbfc0e1108a8fd17b448a68554199c47d08ffb10d4b86003553480156100a057600080fd5b506111cf806100b06000396000f3fe608060405234801561001057600080fd5b50600436106100fc576000357c01000000000000000000000000000000000000000000000000000000009004806366da27af116100a95780638e833f0d116100835780638e833f0d1461035e57806391327ec6146103c5578063a9c5afbc146103e3578063dafbb22514610465576100fc565b806366da27af146102c557806370a5d8611461032257806372a4c30f14610340576100fc565b806330f32349116100da57806330f3234914610189578063422ae5bb146101f05780635bf56bc414610272576100fc565b806306c91ce3146101015780631b54f8241461011f5780632d58c9a21461016b575b600080fd5b6101096104c9565b6040518082815260200191505060405180910390f35b6101556004803603604081101561013557600080fd5b8101908080359060200190929190803590602001909291905050506104cf565b6040518082815260200191505060405180910390f35b6101736105c4565b6040518082815260200191505060405180910390f35b6101d36004803603608081101561019f57600080fd5b81019080803590602001909291908035906020019092919080359060200190929190803590602001909291905050506105ca565b604051808381526020018281526020019250505060405180910390f35b61024e600480360360c081101561020657600080fd5b810190808035906020019092919080359060200190929190803590602001909291908035906020019092919080359060200190929190803590602001909291905050506105ee565b60405180848152602001838152602001828152602001935050505060405180910390f35b6102a86004803603604081101561028857600080fd5b81019080803590602001909291908035906020019092919050505061061f565b604051808381526020018281526020019250505060405180910390f35b610305600480360360608110156102db57600080fd5b81019080803590602001909291908035906020019092919080359060200190929190505050610683565b604051808381526020018281526020019250505060405180910390f35b61032a6106a5565b6040518082815260200191505060405180910390f35b6103486106ab565b6040518082815260200191505060405180910390f35b6103a86004803603608081101561037457600080fd5b81019080803590602001909291908035906020019092919080359060200190929190803590602001909291905050506106b1565b604051808381526020018281526020019250505060405180910390f35b6103cd6106d5565b6040518082815260200191505060405180910390f35b610441600480360360c08110156103f957600080fd5b810190808035906020019092919080359060200190929190803590602001909291908035906020019092919080359060200190929190803590602001909291905050506106db565b60405180848152602001838152602001828152602001935050505060405180910390f35b6104af6004803603608081101561047b57600080fd5b810190808035906020019092919080359060200190929190803590602001909291908035906020019092919050505061070c565b604051808215151515815260200191505060405180910390f35b60025481565b6000808314806104de57508183145b806104e95750600082145b1561055c576040517f08c379a000000000000000000000000000000000000000000000000000000000815260040180806020018281038252600e8152602001807f496e76616c6964206e756d62657200000000000000000000000000000000000081525060200191505060405180910390fd5b600090506000600190506000839050600085905060005b600082146105ba5781838161058457fe5b04905083868061059057fe5b878061059857fe5b8684098803870880955081965050508182820284038093508194505050610573565b5050505092915050565b60035481565b6000806105dd8686868660008054610741565b809250819350505094509492505050565b60008060006105fd8987610779565b925061060b888887876105ca565b809250819350505096509650969350505050565b600080600080610636600454600254600354610683565b9150915060008061064c88600254600354610683565b9150915060008061065e898787610683565b9150915061066e848484846106b1565b80985081995050505050505050509250929050565b600080610695858585600080546107a8565b8092508193505050935093915050565b60045481565b60015481565b6000806106c486868686600080546107e6565b809250819350505094509492505050565b60005481565b60008060006106ea898761085f565b92506106f8888887876106b1565b809250819350505096509650969350505050565b600080600061071b878761061f565b91509150818514801561072d57508084145b1561073757600192505b5050949350505050565b600080600080610752888887610874565b915091506107648a8a84848a8a6107e6565b80945081955050505050965096945050505050565b60008060005490508284101561079157838303810391505b828411156107a157808385030691505b5092915050565b60008060008060006107bf8a8a8a60018b8b610894565b9250925092506107d183838389610a20565b80955081965050505050509550959350505050565b600080600080905060008090506000809050888b141561081f5761080e8b8b60018a8a610a6f565b80935081945082955050505061083d565b6108308b8b60018c8c60018c610c2d565b8093508194508295505050505b61084983838389610a20565b8095508196505050505050965096945050505050565b60008060005490508083850891505092915050565b60008084838585038161088357fe5b068092508193505050935093915050565b6000806000808990506108a5611156565b89816000600381106108b357fe5b60200201818152505088816001600381106108ca57fe5b60200201818152505087816002600381106108e157fe5b60200201818152505060009450600093506001925060008b141561091a5760008060018292508191508090509450945094505050610a14565b5b60008214610a11576000600183161461097d576109708585858460006003811061094157fe5b60200201518560016003811061095357fe5b60200201518660026003811061096557fe5b60200201518c610c2d565b8095508196508297505050505b6002828161098757fe5b0491506109ca8160006003811061099a57fe5b6020020151826001600381106109ac57fe5b6020020151836002600381106109be57fe5b60200201518a8a610a6f565b836000600381106109d757fe5b60200201846001600381106109e857fe5b60200201856002600381106109f957fe5b6020020183815250838152508381525050505061091b565b50505b96509650969350505050565b6000806000610a2f85856104cf565b905060008480610a3b57fe5b82830990508480610a4857fe5b81890993508480610a5557fe5b8580610a5d57fe5b82840988099250505094509492505050565b600080600080861415610a8a57878787925092509250610c22565b610a92611156565b8480610a9a57fe5b898a0981600060038110610aaa57fe5b6020020181815250508480610abb57fe5b88890981600160038110610acb57fe5b6020020181815250508480610adc57fe5b87880981600260038110610aec57fe5b60200201818152505060008580610aff57fe5b8680610b0757fe5b83600160038110610b1457fe5b60200201518c09600409905060008680610b2a57fe5b8780610b3257fe5b8880610b3a57fe5b85600260038110610b4757fe5b602002015186600260038110610b5957fe5b6020020151098a098880610b6957fe5b85600060038110610b7657fe5b602002015160030908905060008780610b8b57fe5b8880610b9357fe5b84850889038980610ba057fe5b8485090890508096508780610bb157fe5b8880610bb957fe5b8980610bc157fe5b86600160038110610bce57fe5b602002015187600160038110610be057fe5b60200201510960080989038980610bf357fe5b8a80610bfb57fe5b8a8c03870885090895508780610c0d57fe5b8880610c1557fe5b8b8d096002099450505050505b955095509592505050565b6000806000808a148015610c415750600089145b15610c5457868686925092509250611149565b600087148015610c645750600086145b15610c7757898989925092509250611149565b610c7f611178565b8480610c8757fe5b898a0981600060048110610c9757fe5b6020020181815250508480610ca857fe5b81600060048110610cb557fe5b60200201518a0981600160048110610cc957fe5b6020020181815250508480610cda57fe5b86870981600260048110610cea57fe5b6020020181815250508480610cfb57fe5b81600260048110610d0857fe5b6020020151870981600360048110610d1c57fe5b60200201818152505060405180608001604052808680610d3857fe5b83600260048110610d4557fe5b60200201518e0981526020018680610d5957fe5b83600360048110610d6657fe5b60200201518d0981526020018680610d7a57fe5b83600060048110610d8757fe5b60200201518b0981526020018680610d9b57fe5b83600160048110610da857fe5b60200201518a09815250905080600260048110610dc157fe5b602002015181600060048110610dd357fe5b60200201511415610ee35780600360048110610deb57fe5b602002015181600160048110610dfd57fe5b602002015114610e75576040517f08c379a000000000000000000000000000000000000000000000000000000000815260040180806020018281038252600a8152602001807f57726f6e6720646174610000000000000000000000000000000000000000000081525060200191505060405180910390fd5b6040517f08c379a00000000000000000000000000000000000000000000000000000000081526004018080602001828103825260128152602001807f55736520646f75626c6520696e7374656164000000000000000000000000000081525060200191505060405180910390fd5b610eeb611178565b8580610ef357fe5b82600060048110610f0057fe5b6020020151870383600260048110610f1457fe5b60200201510881600060048110610f2757fe5b6020020181815250508580610f3857fe5b82600160048110610f4557fe5b6020020151870383600360048110610f5957fe5b60200201510881600160048110610f6c57fe5b6020020181815250508580610f7d57fe5b81600060048110610f8a57fe5b602002015182600060048110610f9c57fe5b60200201510981600260048110610faf57fe5b6020020181815250508580610fc057fe5b81600060048110610fcd57fe5b602002015182600260048110610fdf57fe5b60200201510981600360048110610ff257fe5b602002018181525050858061100357fe5b8160036004811061101057fe5b60200201518703878061101f57fe5b8360016004811061102c57fe5b60200201518460016004811061103e57fe5b602002015109089450858061104f57fe5b868061105757fe5b878061105f57fe5b8360026004811061106c57fe5b60200201518560006004811061107e57fe5b602002015109600209870386089450858061109557fe5b868061109d57fe5b86880388806110a857fe5b846002600481106110b557fe5b6020020151866000600481106110c757fe5b60200201510908826001600481106110db57fe5b602002015109935085806110eb57fe5b86806110f357fe5b8260036004811061110057fe5b60200201518460016004811061111257fe5b602002015109870385089350858061112657fe5b868061112e57fe5b888c098260006004811061113e57fe5b602002015109925050505b9750975097945050505050565b6040518060600160405280600390602082028038833980820191505090505090565b604051806080016040528060049060208202803883398082019150509050509056fea265627a7a723058203283c7008fd562ce3169a13c37187b4a1f9ffb259f2ea5153c4b778328f0819864736f6c634300050a0032",
  "source": "pragma solidity 0.5.10;\n\nimport \"./EllipticCurve.sol\";\nimport \"./EllipticCurveInerface.sol\";\nimport \"../SafeMath.sol\";\n\n\ncontract PedersenCommitment is EllipticCurveInterface {\n    using SafeMath for uint256;\n\n    uint256 public H;\n\n    modifier isHSet( ){\n        require( H == 0);\n        _;\n    }\n\n    function setH ( )\n        internal\n        isHSet\n    {\n        uint256 TH = uint256( keccak256(abi.encodePacked(now,msg.sender)));\n        uint256 _p = pp;\n        assembly{\n            TH := mod(TH,_p)\n        }\n        H = TH;\n    }\n\n    function addmodP( uint256 _v1 , uint256 _v2 )\n        internal\n        view\n        returns( uint256 _v3 )\n    {\n        uint256 _p = pp;\n        assembly{\n            _v3 := addmod(_v1,_v2,_p)\n        }\n    }\n\n    function submodP( uint256 _v1 , uint256 _v2 )\n        internal\n        view\n        returns( uint256 _v3 )\n    {\n        uint256 _p = pp;\n        assembly{\n            if lt( _v1 , _v2 ){\n                _v3 := sub( _p , sub( _v2 , _v1 ) )\n            }\n            if gt(_v1 , _v2) {\n                _v3 := mod( sub( _v1 , _v2 ) , _p )\n            }\n        }\n    }\n\n    function commit( uint256 _r , uint256 _v )\n        public\n        view\n        returns ( uint256 _x3 , uint256 _y3 )\n    {\n        ( uint256 _lx , uint256 _ly ) = eMul( H , gx , gy );\n        ( uint256 _x1 , uint256  _y1 ) = eMul( _r , gx , gy );\n        ( uint256 _x2 , uint256 _y2 ) = eMul( _v , _lx , _ly );\n        ( _x3 , _y3 ) = eAdd( _x1 , _y1 , _x2 , _y2 );\n    }\n\n    function verify( uint256 _r , uint256 _v , uint256 _x1 , uint256 _y1 )\n        public\n        view\n        returns ( bool result )\n    {\n        ( uint256 _x2 , uint256 _y2 ) = commit( _r , _v );\n        if ( (_x1 == _x2) && ( _y1 == _y2 ) ){\n            result = true;\n        }\n    }\n\n    function addCommitment( uint256 _r1 ,uint256 _x1 , uint256 _y1 ,  uint256 _r2 , uint256 _x2 , uint256 _y2 )\n        public\n        view\n        returns ( uint256 _r3 , uint256 _x3 , uint256 _y3 )\n    {\n        _r3 = addmodP(_r1,_r2);\n        ( _x3 , _y3 ) = eAdd( _x1 , _y1 , _x2 , _y2 );\n    }\n\n    function subCommitment( uint256 _r1 ,uint256 _x1 , uint256 _y1 ,  uint256 _r2 , uint256 _x2 , uint256 _y2 )\n        public\n        view\n        returns ( uint256 _r3 , uint256 _x3 , uint256 _y3 )\n    {\n        _r3 = submodP( _r1 , _r2 );\n        ( _x3 , _y3 ) = eSub( _x1 , _y1 , _x2 , _y2 );\n    }\n\n}",
  "sourcePath": "/Users/harshpatel/codebase/git/solGrined/solGrined/contracts/ZKP/PedersenCommitment.sol",
  "compiler": {
    "name": "solc",
    "version": "0.5.10+commit.5a6ea5b1.Emscripten.clang"
  },
  "schemaVersion": "3.0.18",
  "updatedAt": "2019-11-10T12:45:20.574Z",
  "networkType": "ethereum",
  "devdoc": {
    "methods": {
      "invMod(uint256,uint256)": {
        "details": "Modular euclidean inverse of a number (mod p)",
        "params": {
          "pp": "The modulus",
          "x": "The number"
        },
        "return": "q such that x*q = 1 (mod pp)"
      }
    }
  },
  "userdoc": {
    "methods": {}
  }
}